{
  "contractName": "DrugSupplyChain",
  "abi": [
    {
      "inputs": [
        {
          "internalType": "string",
          "name": "",
          "type": "string"
        }
      ],
      "name": "batches",
      "outputs": [
        {
          "internalType": "string",
          "name": "batchId",
          "type": "string"
        },
        {
          "internalType": "string",
          "name": "drugName",
          "type": "string"
        },
        {
          "internalType": "int256",
          "name": "minTemp",
          "type": "int256"
        },
        {
          "internalType": "int256",
          "name": "maxTemp",
          "type": "int256"
        },
        {
          "internalType": "string",
          "name": "owner",
          "type": "string"
        },
        {
          "internalType": "string",
          "name": "status",
          "type": "string"
        }
      ],
      "stateMutability": "view",
      "type": "function",
      "constant": true
    },
    {
      "inputs": [
        {
          "internalType": "string",
          "name": "_batchId",
          "type": "string"
        },
        {
          "internalType": "string",
          "name": "_drugName",
          "type": "string"
        },
        {
          "internalType": "int256",
          "name": "_minTemp",
          "type": "int256"
        },
        {
          "internalType": "int256",
          "name": "_maxTemp",
          "type": "int256"
        }
      ],
      "name": "registerBatch",
      "outputs": [],
      "stateMutability": "nonpayable",
      "type": "function"
    },
    {
      "inputs": [
        {
          "internalType": "string",
          "name": "_batchId",
          "type": "string"
        },
        {
          "internalType": "string",
          "name": "_newOwner",
          "type": "string"
        }
      ],
      "name": "transferBatch",
      "outputs": [],
      "stateMutability": "nonpayable",
      "type": "function"
    },
    {
      "inputs": [
        {
          "internalType": "string",
          "name": "_batchId",
          "type": "string"
        },
        {
          "internalType": "int256",
          "name": "_temp",
          "type": "int256"
        }
      ],
      "name": "recordTemperature",
      "outputs": [],
      "stateMutability": "nonpayable",
      "type": "function"
    }
  ],
  "bytecode": "0x608060405234801561001057600080fd5b50610d2e806100206000396000f3fe608060405234801561001057600080fd5b506004361061004c5760003560e01c80631bc4fb3b146100515780634365737b1461006d5780637ef1446a146100895780639680709a146100be575b600080fd5b61006b600480360381019061006691906106f6565b6100da565b005b61008760048036038101906100829190610752565b610197565b005b6100a3600480360381019061009e91906107ca565b6101ca565b6040516100b5969594939291906108a1565b60405180910390f35b6100d860048036038101906100d3919061091e565b61043c565b005b6000826040516100ea91906109f9565b908152602001604051809103902060020154811280610129575060008260405161011491906109f9565b90815260200160405180910390206003015481135b15610193576040518060400160405280600b81526020017f436f6d70726f6d6973656400000000000000000000000000000000000000000081525060008360405161017491906109f9565b908152602001604051809103902060050190816101919190610c26565b505b5050565b806000836040516101a891906109f9565b908152602001604051809103902060040190816101c59190610c26565b505050565b60008180516020810182018051848252602083016020850120818352809550505050505060009150905080600001805461020390610a3f565b80601f016020809104026020016040519081016040528092919081815260200182805461022f90610a3f565b801561027c5780601f106102515761010080835404028352916020019161027c565b820191906000526020600020905b81548152906001019060200180831161025f57829003601f168201915b50505050509080600101805461029190610a3f565b80601f01602080910402602001604051908101604052809291908181526020018280546102bd90610a3f565b801561030a5780601f106102df5761010080835404028352916020019161030a565b820191906000526020600020905b8154815290600101906020018083116102ed57829003601f168201915b50505050509080600201549080600301549080600401805461032b90610a3f565b80601f016020809104026020016040519081016040528092919081815260200182805461035790610a3f565b80156103a45780601f10610379576101008083540402835291602001916103a4565b820191906000526020600020905b81548152906001019060200180831161038757829003601f168201915b5050505050908060050180546103b990610a3f565b80601f01602080910402602001604051908101604052809291908181526020018280546103e590610a3f565b80156104325780601f1061040757610100808354040283529160200191610432565b820191906000526020600020905b81548152906001019060200180831161041557829003601f168201915b5050505050905086565b6040518060c001604052808581526020018481526020018381526020018281526020016040518060400160405280600c81526020017f4d616e756661637475726572000000000000000000000000000000000000000081525081526020016040518060400160405280600481526020017f53616665000000000000000000000000000000000000000000000000000000008152508152506000856040516104e391906109f9565b908152602001604051809103902060008201518160000190816105069190610c26565b50602082015181600101908161051c9190610c26565b50604082015181600201556060820151816003015560808201518160040190816105469190610c26565b5060a082015181600501908161055c9190610c26565b5090505050505050565b6000604051905090565b600080fd5b600080fd5b600080fd5b600080fd5b6000601f19601f8301169050919050565b7f4e487b7100000000000000000000000000000000000000000000000000000000600052604160045260246000fd5b6105cd82610584565b810181811067ffffffffffffffff821117156105ec576105eb610595565b5b80604052505050565b60006105ff610566565b905061060b82826105c4565b919050565b600067ffffffffffffffff82111561062b5761062a610595565b5b61063482610584565b9050602081019050919050565b82818337600083830152505050565b600061066361065e84610610565b6105f5565b90508281526020810184848401111561067f5761067e61057f565b5b61068a848285610641565b509392505050565b600082601f8301126106a7576106a661057a565b5b81356106b7848260208601610650565b91505092915050565b6000819050919050565b6106d3816106c0565b81146106de57600080fd5b50565b6000813590506106f0816106ca565b92915050565b6000806040838503121561070d5761070c610570565b5b600083013567ffffffffffffffff81111561072b5761072a610575565b5b61073785828601610692565b9250506020610748858286016106e1565b9150509250929050565b6000806040838503121561076957610768610570565b5b600083013567ffffffffffffffff81111561078757610786610575565b5b61079385828601610692565b925050602083013567ffffffffffffffff8111156107b4576107b3610575565b5b6107c085828601610692565b9150509250929050565b6000602082840312156107e0576107df610570565b5b600082013567ffffffffffffffff8111156107fe576107fd610575565b5b61080a84828501610692565b91505092915050565b600081519050919050565b600082825260208201905092915050565b60005b8381101561084d578082015181840152602081019050610832565b60008484015250505050565b600061086482610813565b61086e818561081e565b935061087e81856020860161082f565b61088781610584565b840191505092915050565b61089b816106c0565b82525050565b600060c08201905081810360008301526108bb8189610859565b905081810360208301526108cf8188610859565b90506108de6040830187610892565b6108eb6060830186610892565b81810360808301526108fd8185610859565b905081810360a08301526109118184610859565b9050979650505050505050565b6000806000806080858703121561093857610937610570565b5b600085013567ffffffffffffffff81111561095657610955610575565b5b61096287828801610692565b945050602085013567ffffffffffffffff81111561098357610982610575565b5b61098f87828801610692565b93505060406109a0878288016106e1565b92505060606109b1878288016106e1565b91505092959194509250565b600081905092915050565b60006109d382610813565b6109dd81856109bd565b93506109ed81856020860161082f565b80840191505092915050565b6000610a0582846109c8565b915081905092915050565b7f4e487b7100000000000000000000000000000000000000000000000000000000600052602260045260246000fd5b60006002820490506001821680610a5757607f821691505b602082108103610a6a57610a69610a10565b5b50919050565b60008190508160005260206000209050919050565b60006020601f8301049050919050565b600082821b905092915050565b600060088302610ad27fffffffffffffffffffffffffffffffffffffffffffffffffffffffffffffffff82610a95565b610adc8683610a95565b95508019841693508086168417925050509392505050565b6000819050919050565b6000819050919050565b6000610b23610b1e610b1984610af4565b610afe565b610af4565b9050919050565b6000819050919050565b610b3d83610b08565b610b51610b4982610b2a565b848454610aa2565b825550505050565b600090565b610b66610b59565b610b71818484610b34565b505050565b5b81811015610b9557610b8a600082610b5e565b600181019050610b77565b5050565b601f821115610bda57610bab81610a70565b610bb484610a85565b81016020851015610bc3578190505b610bd7610bcf85610a85565b830182610b76565b50505b505050565b600082821c905092915050565b6000610bfd60001984600802610bdf565b1980831691505092915050565b6000610c168383610bec565b9150826002028217905092915050565b610c2f82610813565b67ffffffffffffffff811115610c4857610c47610595565b5b610c528254610a3f565b610c5d828285610b99565b600060209050601f831160018114610c905760008415610c7e578287015190505b610c888582610c0a565b865550610cf0565b601f198416610c9e86610a70565b60005b82811015610cc657848901518255600182019150602085019450602081019050610ca1565b86831015610ce35784890151610cdf601f891682610bec565b8355505b6001600288020188555050505b50505050505056fea2646970667358221220246664457c23d09124abf9672c47bc26d93749d7eb2f6ab38314a91110a1309b64736f6c63430008130033",
  "immutableReferences": {},
  "source": "// SPDX-License-Identifier: MIT\npragma solidity ^0.8.19;\n\ncontract DrugSupplyChain {\n\n    struct DrugBatch {\n        string batchId;\n        string drugName;\n        int minTemp;\n        int maxTemp;\n        string owner;\n        string status;\n    }\n\n    mapping(string => DrugBatch) public batches;\n\n    // Register batch\n    function registerBatch(\n        string memory _batchId,\n        string memory _drugName,\n        int _minTemp,\n        int _maxTemp\n    ) public {\n\n        batches[_batchId] = DrugBatch(\n            _batchId,\n            _drugName,\n            _minTemp,\n            _maxTemp,\n            \"Manufacturer\",\n            \"Safe\"\n        );\n    }\n\n    // Transfer ownership\n    function transferBatch(\n        string memory _batchId,\n        string memory _newOwner\n    ) public {\n\n        batches[_batchId].owner = _newOwner;\n    }\n\n    // Record temperature\n    function recordTemperature(\n        string memory _batchId,\n        int _temp\n    ) public {\n\n        if(\n            _temp < batches[_batchId].minTemp ||\n            _temp > batches[_batchId].maxTemp\n        ){\n            batches[_batchId].status = \"Compromised\";\n        }\n    }\n}",
  "sourcePath": "/Users/anushreemohanram/drug-blockchain/contracts/DrugSupplyChain.sol",
  "compiler": {
    "name": "solc",
    "version": "0.8.19+commit.7dd6d404.Emscripten.clang"
  },
  "schemaVersion": "3.4.16",
  "updatedAt": "2026-03-07T10:54:15.122Z",
  "networkType": "ethereum",
  "devdoc": {
    "kind": "dev",
    "methods": {},
    "version": 1
  },
  "userdoc": {
    "kind": "user",
    "methods": {},
    "version": 1
  }
}