{
  "_format": "hh-sol-artifact-1",
  "contractName": "DrugSupplyChain",
  "sourceName": "contracts/DrugSupplyChain.sol",
  "abi": [
    {
      "inputs": [
        {
          "internalType": "string",
          "name": "",
          "type": "string"
        }
      ],
      "name": "batches",
      "outputs": [
        {
          "internalType": "string",
          "name": "batchId",
          "type": "string"
        },
        {
          "internalType": "string",
          "name": "drugName",
          "type": "string"
        },
        {
          "internalType": "int256",
          "name": "minTemp",
          "type": "int256"
        },
        {
          "internalType": "int256",
          "name": "maxTemp",
          "type": "int256"
        },
        {
          "internalType": "string",
          "name": "owner",
          "type": "string"
        },
        {
          "internalType": "string",
          "name": "status",
          "type": "string"
        }
      ],
      "stateMutability": "view",
      "type": "function"
    },
    {
      "inputs": [
        {
          "internalType": "string",
          "name": "_batchId",
          "type": "string"
        }
      ],
      "name": "getStatus",
      "outputs": [
        {
          "internalType": "string",
          "name": "",
          "type": "string"
        }
      ],
      "stateMutability": "view",
      "type": "function"
    },
    {
      "inputs": [
        {
          "internalType": "string",
          "name": "_batchId",
          "type": "string"
        },
        {
          "internalType": "int256",
          "name": "_temp",
          "type": "int256"
        }
      ],
      "name": "recordTemperature",
      "outputs": [],
      "stateMutability": "nonpayable",
      "type": "function"
    },
    {
      "inputs": [
        {
          "internalType": "string",
          "name": "_batchId",
          "type": "string"
        },
        {
          "internalType": "string",
          "name": "_drugName",
          "type": "string"
        },
        {
          "internalType": "int256",
          "name": "_minTemp",
          "type": "int256"
        },
        {
          "internalType": "int256",
          "name": "_maxTemp",
          "type": "int256"
        }
      ],
      "name": "registerBatch",
      "outputs": [],
      "stateMutability": "nonpayable",
      "type": "function"
    },
    {
      "inputs": [
        {
          "internalType": "string",
          "name": "_batchId",
          "type": "string"
        },
        {
          "internalType": "string",
          "name": "_newOwner",
          "type": "string"
        }
      ],
      "name": "transferBatch",
      "outputs": [],
      "stateMutability": "nonpayable",
      "type": "function"
    }
  ],
  "bytecode": "0x608060405234801561001057600080fd5b50610e3e806100206000396000f3fe608060405234801561001057600080fd5b50600436106100575760003560e01c80631bc4fb3b1461005c57806322b05ed2146100785780634365737b146100a85780637ef1446a146100c45780639680709a146100f9575b600080fd5b610076600480360381019061007191906107e4565b610115565b005b610092600480360381019061008d9190610840565b6101d2565b60405161009f9190610908565b60405180910390f35b6100c260048036038101906100bd919061092a565b610285565b005b6100de60048036038101906100d99190610840565b6102b8565b6040516100f0969594939291906109b1565b60405180910390f35b610113600480360381019061010e9190610a2e565b61052a565b005b6000826040516101259190610b09565b908152602001604051809103902060020154811280610164575060008260405161014f9190610b09565b90815260200160405180910390206003015481135b156101ce576040518060400160405280600b81526020017f436f6d70726f6d697365640000000000000000000000000000000000000000008152506000836040516101af9190610b09565b908152602001604051809103902060050190816101cc9190610d36565b505b5050565b60606000826040516101e49190610b09565b9081526020016040518091039020600501805461020090610b4f565b80601f016020809104026020016040519081016040528092919081815260200182805461022c90610b4f565b80156102795780601f1061024e57610100808354040283529160200191610279565b820191906000526020600020905b81548152906001019060200180831161025c57829003601f168201915b50505050509050919050565b806000836040516102969190610b09565b908152602001604051809103902060040190816102b39190610d36565b505050565b6000818051602081018201805184825260208301602085012081835280955050505050506000915090508060000180546102f190610b4f565b80601f016020809104026020016040519081016040528092919081815260200182805461031d90610b4f565b801561036a5780601f1061033f5761010080835404028352916020019161036a565b820191906000526020600020905b81548152906001019060200180831161034d57829003601f168201915b50505050509080600101805461037f90610b4f565b80601f01602080910402602001604051908101604052809291908181526020018280546103ab90610b4f565b80156103f85780601f106103cd576101008083540402835291602001916103f8565b820191906000526020600020905b8154815290600101906020018083116103db57829003601f168201915b50505050509080600201549080600301549080600401805461041990610b4f565b80601f016020809104026020016040519081016040528092919081815260200182805461044590610b4f565b80156104925780601f1061046757610100808354040283529160200191610492565b820191906000526020600020905b81548152906001019060200180831161047557829003601f168201915b5050505050908060050180546104a790610b4f565b80601f01602080910402602001604051908101604052809291908181526020018280546104d390610b4f565b80156105205780601f106104f557610100808354040283529160200191610520565b820191906000526020600020905b81548152906001019060200180831161050357829003601f168201915b5050505050905086565b6040518060c001604052808581526020018481526020018381526020018281526020016040518060400160405280600c81526020017f4d616e756661637475726572000000000000000000000000000000000000000081525081526020016040518060400160405280600481526020017f53616665000000000000000000000000000000000000000000000000000000008152508152506000856040516105d19190610b09565b908152602001604051809103902060008201518160000190816105f49190610d36565b50602082015181600101908161060a9190610d36565b50604082015181600201556060820151816003015560808201518160040190816106349190610d36565b5060a082015181600501908161064a9190610d36565b5090505050505050565b6000604051905090565b600080fd5b600080fd5b600080fd5b600080fd5b6000601f19601f8301169050919050565b7f4e487b7100000000000000000000000000000000000000000000000000000000600052604160045260246000fd5b6106bb82610672565b810181811067ffffffffffffffff821117156106da576106d9610683565b5b80604052505050565b60006106ed610654565b90506106f982826106b2565b919050565b600067ffffffffffffffff82111561071957610718610683565b5b61072282610672565b9050602081019050919050565b82818337600083830152505050565b600061075161074c846106fe565b6106e3565b90508281526020810184848401111561076d5761076c61066d565b5b61077884828561072f565b509392505050565b600082601f83011261079557610794610668565b5b81356107a584826020860161073e565b91505092915050565b6000819050919050565b6107c1816107ae565b81146107cc57600080fd5b50565b6000813590506107de816107b8565b92915050565b600080604083850312156107fb576107fa61065e565b5b600083013567ffffffffffffffff81111561081957610818610663565b5b61082585828601610780565b9250506020610836858286016107cf565b9150509250929050565b6000602082840312156108565761085561065e565b5b600082013567ffffffffffffffff81111561087457610873610663565b5b61088084828501610780565b91505092915050565b600081519050919050565b600082825260208201905092915050565b60005b838110156108c35780820151818401526020810190506108a8565b60008484015250505050565b60006108da82610889565b6108e48185610894565b93506108f48185602086016108a5565b6108fd81610672565b840191505092915050565b6000602082019050818103600083015261092281846108cf565b905092915050565b600080604083850312156109415761094061065e565b5b600083013567ffffffffffffffff81111561095f5761095e610663565b5b61096b85828601610780565b925050602083013567ffffffffffffffff81111561098c5761098b610663565b5b61099885828601610780565b9150509250929050565b6109ab816107ae565b82525050565b600060c08201905081810360008301526109cb81896108cf565b905081810360208301526109df81886108cf565b90506109ee60408301876109a2565b6109fb60608301866109a2565b8181036080830152610a0d81856108cf565b905081810360a0830152610a2181846108cf565b9050979650505050505050565b60008060008060808587031215610a4857610a4761065e565b5b600085013567ffffffffffffffff811115610a6657610a65610663565b5b610a7287828801610780565b945050602085013567ffffffffffffffff811115610a9357610a92610663565b5b610a9f87828801610780565b9350506040610ab0878288016107cf565b9250506060610ac1878288016107cf565b91505092959194509250565b600081905092915050565b6000610ae382610889565b610aed8185610acd565b9350610afd8185602086016108a5565b80840191505092915050565b6000610b158284610ad8565b915081905092915050565b7f4e487b7100000000000000000000000000000000000000000000000000000000600052602260045260246000fd5b60006002820490506001821680610b6757607f821691505b602082108103610b7a57610b79610b20565b5b50919050565b60008190508160005260206000209050919050565b60006020601f8301049050919050565b600082821b905092915050565b600060088302610be27fffffffffffffffffffffffffffffffffffffffffffffffffffffffffffffffff82610ba5565b610bec8683610ba5565b95508019841693508086168417925050509392505050565b6000819050919050565b6000819050919050565b6000610c33610c2e610c2984610c04565b610c0e565b610c04565b9050919050565b6000819050919050565b610c4d83610c18565b610c61610c5982610c3a565b848454610bb2565b825550505050565b600090565b610c76610c69565b610c81818484610c44565b505050565b5b81811015610ca557610c9a600082610c6e565b600181019050610c87565b5050565b601f821115610cea57610cbb81610b80565b610cc484610b95565b81016020851015610cd3578190505b610ce7610cdf85610b95565b830182610c86565b50505b505050565b600082821c905092915050565b6000610d0d60001984600802610cef565b1980831691505092915050565b6000610d268383610cfc565b9150826002028217905092915050565b610d3f82610889565b67ffffffffffffffff811115610d5857610d57610683565b5b610d628254610b4f565b610d6d828285610ca9565b600060209050601f831160018114610da05760008415610d8e578287015190505b610d988582610d1a565b865550610e00565b601f198416610dae86610b80565b60005b82811015610dd657848901518255600182019150602085019450602081019050610db1565b86831015610df35784890151610def601f891682610cfc565b8355505b6001600288020188555050505b50505050505056fea2646970667358221220771d98905edfca07deabfe3530a348772cda937ba697eb13b05c7537cd6fecea64736f6c63430008130033",
  "linkReferences": {},
  "deployedLinkReferences": {}
}